{
  "_format": "hh-sol-artifact-1",
  "contractName": "DappVotes",
  "sourceName": "contracts/DappVotes.sol",
  "abi": [
    {
      "anonymous": false,
      "inputs": [
        {
          "indexed": true,
          "internalType": "address",
          "name": "voter",
          "type": "address"
        },
        {
          "indexed": false,
          "internalType": "uint256",
          "name": "time",
          "type": "uint256"
        }
      ],
      "name": "VoteCast",
      "type": "event"
    },
    {
      "inputs": [
        {
          "internalType": "string",
          "name": "name",
          "type": "string"
        },
        {
          "internalType": "string",
          "name": "info",
          "type": "string"
        },
        {
          "internalType": "uint256",
          "name": "startTime",
          "type": "uint256"
        },
        {
          "internalType": "uint256",
          "name": "endTime",
          "type": "uint256"
        }
      ],
      "name": "createPoll",
      "outputs": [],
      "stateMutability": "nonpayable",
      "type": "function"
    },
    {
      "inputs": [
        {
          "internalType": "uint256",
          "name": "id",
          "type": "uint256"
        }
      ],
      "name": "getPollDetails",
      "outputs": [
        {
          "components": [
            {
              "internalType": "uint256",
              "name": "id",
              "type": "uint256"
            },
            {
              "internalType": "string",
              "name": "name",
              "type": "string"
            },
            {
              "internalType": "string",
              "name": "info",
              "type": "string"
            },
            {
              "internalType": "uint256",
              "name": "voteCount",
              "type": "uint256"
            },
            {
              "internalType": "uint256",
              "name": "contestantCount",
              "type": "uint256"
            },
            {
              "internalType": "bool",
              "name": "isDeleted",
              "type": "bool"
            },
            {
              "internalType": "address",
              "name": "creator",
              "type": "address"
            },
            {
              "internalType": "uint256",
              "name": "startTime",
              "type": "uint256"
            },
            {
              "internalType": "uint256",
              "name": "endTime",
              "type": "uint256"
            },
            {
              "internalType": "uint256",
              "name": "createdTime",
              "type": "uint256"
            },
            {
              "internalType": "address[]",
              "name": "voters",
              "type": "address[]"
            },
            {
              "internalType": "string[]",
              "name": "images",
              "type": "string[]"
            }
          ],
          "internalType": "struct DappVotes.Poll",
          "name": "",
          "type": "tuple"
        }
      ],
      "stateMutability": "view",
      "type": "function"
    },
    {
      "inputs": [],
      "name": "listPolls",
      "outputs": [
        {
          "components": [
            {
              "internalType": "uint256",
              "name": "id",
              "type": "uint256"
            },
            {
              "internalType": "string",
              "name": "name",
              "type": "string"
            },
            {
              "internalType": "string",
              "name": "info",
              "type": "string"
            },
            {
              "internalType": "uint256",
              "name": "voteCount",
              "type": "uint256"
            },
            {
              "internalType": "uint256",
              "name": "contestantCount",
              "type": "uint256"
            },
            {
              "internalType": "bool",
              "name": "isDeleted",
              "type": "bool"
            },
            {
              "internalType": "address",
              "name": "creator",
              "type": "address"
            },
            {
              "internalType": "uint256",
              "name": "startTime",
              "type": "uint256"
            },
            {
              "internalType": "uint256",
              "name": "endTime",
              "type": "uint256"
            },
            {
              "internalType": "uint256",
              "name": "createdTime",
              "type": "uint256"
            },
            {
              "internalType": "address[]",
              "name": "voters",
              "type": "address[]"
            },
            {
              "internalType": "string[]",
              "name": "images",
              "type": "string[]"
            }
          ],
          "internalType": "struct DappVotes.Poll[]",
          "name": "availablePolls",
          "type": "tuple[]"
        }
      ],
      "stateMutability": "view",
      "type": "function"
    },
    {
      "inputs": [
        {
          "internalType": "uint256",
          "name": "id",
          "type": "uint256"
        },
        {
          "internalType": "string",
          "name": "name",
          "type": "string"
        },
        {
          "internalType": "string",
          "name": "info",
          "type": "string"
        },
        {
          "internalType": "uint256",
          "name": "startTime",
          "type": "uint256"
        },
        {
          "internalType": "uint256",
          "name": "endTime",
          "type": "uint256"
        }
      ],
      "name": "modifyPoll",
      "outputs": [],
      "stateMutability": "nonpayable",
      "type": "function"
    },
    {
      "inputs": [
        {
          "internalType": "uint256",
          "name": "id",
          "type": "uint256"
        }
      ],
      "name": "removePoll",
      "outputs": [],
      "stateMutability": "nonpayable",
      "type": "function"
    }
  ],
  "bytecode": "0x608060405234801561001057600080fd5b5061159d806100206000396000f3fe608060405234801561001057600080fd5b50600436106100575760003560e01c806306aceddc1461005c57806334bfce7f146100715780634412f75e1461008457806378e3db75146100975780639a0040e4146100b5575b600080fd5b61006f61006a36600461101c565b6100d5565b005b61006f61007f366004611090565b61034a565b61006f6100923660046110a9565b610476565b61009f6106ef565b6040516100ac91906112e5565b60405180910390f35b6100c86100c3366004611090565b610ad8565b6040516100ac9190611347565b60008451116101225760405162461bcd60e51b81526020600482015260146024820152734e616d652063616e6e6f7420626520656d70747960601b60448201526064015b60405180910390fd5b60008351116101735760405162461bcd60e51b815260206004820152601b60248201527f4465736372697074696f6e2063616e6e6f7420626520656d70747900000000006044820152606401610119565b600082116101cd5760405162461bcd60e51b815260206004820152602160248201527f53746172742074696d65206d7573742062652067726561746572207468616e206044820152600360fc1b6064820152608401610119565b8181116101ec5760405162461bcd60e51b815260040161011990611361565b6101fa600080546001019055565b610202610de7565b6000548152602081018590526040810184905260e0810183905261010081018290523360c0820152610232610dc8565b61012082015280516000908152600360209081526040909120825181559082015182919060018201906102659082611432565b506040820151600282019061027a9082611432565b50606082015160038201556080820151600482015560a082015160058201805460c08501516001600160a81b0319909116921515610100600160a81b031916929092176101006001600160a01b03909316830217905560e08301516006830155820151600782015561012082015160088201556101408201518051610309916009840191602090910190610e53565b50610160820151805161032691600a840191602090910190610eb8565b505090516000908152600260205260409020805460ff191660011790555050505050565b60008181526002602052604090205460ff1661039e5760405162461bcd60e51b8152602060048201526013602482015272141bdb1b08191bd95cc81b9bdd08195e1a5cdd606a1b6044820152606401610119565b60008181526003602052604090206005015461010090046001600160a01b031633146103fd5760405162461bcd60e51b815260206004820152600e60248201526d139bdd08185d5d1a1bdc9a5e995960921b6044820152606401610119565b600081815260036020819052604090912001546001116104585760405162461bcd60e51b8152602060048201526016602482015275506f6c6c20616c72656164792068617320766f74657360501b6044820152606401610119565b6000908152600360205260409020600501805460ff19166001179055565b60008581526002602052604090205460ff166104ca5760405162461bcd60e51b8152602060048201526013602482015272141bdb1b08191bd95cc81b9bdd08195e1a5cdd606a1b6044820152606401610119565b60008581526003602052604090206005015461010090046001600160a01b031633146105295760405162461bcd60e51b815260206004820152600e60248201526d139bdd08185d5d1a1bdc9a5e995960921b6044820152606401610119565b60008451116105715760405162461bcd60e51b81526020600482015260146024820152734e616d652063616e6e6f7420626520656d70747960601b6044820152606401610119565b60008351116105c25760405162461bcd60e51b815260206004820152601b60248201527f4465736372697074696f6e2063616e6e6f7420626520656d70747900000000006044820152606401610119565b60008581526003602052604090206005015460ff161561061b5760405162461bcd60e51b8152602060048201526014602482015273141bdb1b08185b1c9958591e4819195b195d195960621b6044820152606401610119565b600085815260036020819052604090912001546001116106765760405162461bcd60e51b8152602060048201526016602482015275506f6c6c20616c72656164792068617320766f74657360501b6044820152606401610119565b8181116106955760405162461bcd60e51b815260040161011990611361565b60008581526003602052604090206001016106b08582611432565b5060008581526003602052604090206002016106cc8482611432565b506000948552600360205260409094206006810191909155600701929092555050565b6060600060015b60005481116107385760008181526003602052604090206005015460ff16610726578161072281611508565b9250505b8061073081611508565b9150506106f6565b508067ffffffffffffffff81111561075257610752610f79565b60405190808252806020026020018201604052801561078b57816020015b610778610de7565b8152602001906001900390816107705790505b509150600060015b6000548111610ad25760008181526003602052604090206005015460ff16610ac0576003600082815260200190815260200160002060405180610180016040529081600082015481526020016001820180546107ee906113a9565b80601f016020809104026020016040519081016040528092919081815260200182805461081a906113a9565b80156108675780601f1061083c57610100808354040283529160200191610867565b820191906000526020600020905b81548152906001019060200180831161084a57829003601f168201915b50505050508152602001600282018054610880906113a9565b80601f01602080910402602001604051908101604052809291908181526020018280546108ac906113a9565b80156108f95780601f106108ce576101008083540402835291602001916108f9565b820191906000526020600020905b8154815290600101906020018083116108dc57829003601f168201915b505050918352505060038201546020808301919091526004830154604080840191909152600584015460ff8116151560608501526001600160a01b0361010091829004166080850152600685015460a0850152600785015460c0850152600885015460e0850152600985018054835181860281018601909452808452919094019391928301828280156109b557602002820191906000526020600020905b81546001600160a01b03168152600190910190602001808311610997575b50505050508152602001600a8201805480602002602001604051908101604052809291908181526020016000905b82821015610a8f578382906000526020600020018054610a02906113a9565b80601f0160208091040260200160405190810160405280929190818152602001828054610a2e906113a9565b8015610a7b5780601f10610a5057610100808354040283529160200191610a7b565b820191906000526020600020905b815481529060010190602001808311610a5e57829003601f168201915b5050505050815260200190600101906109e3565b50505091525085905083610aa281611508565b945081518110610ab457610ab4611521565b60200260200101819052505b80610aca81611508565b915050610793565b50505090565b610ae0610de7565b600360008381526020019081526020016000206040518061018001604052908160008201548152602001600182018054610b19906113a9565b80601f0160208091040260200160405190810160405280929190818152602001828054610b45906113a9565b8015610b925780601f10610b6757610100808354040283529160200191610b92565b820191906000526020600020905b815481529060010190602001808311610b7557829003601f168201915b50505050508152602001600282018054610bab906113a9565b80601f0160208091040260200160405190810160405280929190818152602001828054610bd7906113a9565b8015610c245780601f10610bf957610100808354040283529160200191610c24565b820191906000526020600020905b815481529060010190602001808311610c0757829003601f168201915b505050918352505060038201546020808301919091526004830154604080840191909152600584015460ff8116151560608501526001600160a01b0361010091829004166080850152600685015460a0850152600785015460c0850152600885015460e085015260098501805483518186028101860190945280845291909401939192830182828015610ce057602002820191906000526020600020905b81546001600160a01b03168152600190910190602001808311610cc2575b50505050508152602001600a8201805480602002602001604051908101604052809291908181526020016000905b82821015610dba578382906000526020600020018054610d2d906113a9565b80601f0160208091040260200160405190810160405280929190818152602001828054610d59906113a9565b8015610da65780601f10610d7b57610100808354040283529160200191610da6565b820191906000526020600020905b815481529060010190602001808311610d8957829003601f168201915b505050505081526020019060010190610d0e565b505050915250909392505050565b6000610dd6426103e8611537565b610de2906103e8611554565b905090565b604051806101800160405280600081526020016060815260200160608152602001600081526020016000815260200160001515815260200160006001600160a01b0316815260200160008152602001600081526020016000815260200160608152602001606081525090565b828054828255906000526020600020908101928215610ea8579160200282015b82811115610ea857825182546001600160a01b0319166001600160a01b03909116178255602090920191600190910190610e73565b50610eb4929150610f0a565b5090565b828054828255906000526020600020908101928215610efe579160200282015b82811115610efe5782518290610eee9082611432565b5091602001919060010190610ed8565b50610eb4929150610f1f565b5b80821115610eb45760008155600101610f0b565b80821115610eb4576000610f338282610f3c565b50600101610f1f565b508054610f48906113a9565b6000825580601f10610f58575050565b601f016020900490600052602060002090810190610f769190610f0a565b50565b634e487b7160e01b600052604160045260246000fd5b600082601f830112610fa057600080fd5b813567ffffffffffffffff80821115610fbb57610fbb610f79565b604051601f8301601f19908116603f01168101908282118183101715610fe357610fe3610f79565b81604052838152866020858801011115610ffc57600080fd5b836020870160208301376000602085830101528094505050505092915050565b6000806000806080858703121561103257600080fd5b843567ffffffffffffffff8082111561104a57600080fd5b61105688838901610f8f565b9550602087013591508082111561106c57600080fd5b5061107987828801610f8f565b949794965050505060408301359260600135919050565b6000602082840312156110a257600080fd5b5035919050565b600080600080600060a086880312156110c157600080fd5b85359450602086013567ffffffffffffffff808211156110e057600080fd5b6110ec89838a01610f8f565b9550604088013591508082111561110257600080fd5b5061110f88828901610f8f565b9598949750949560608101359550608001359392505050565b6000815180845260005b8181101561114e57602081850181015186830182015201611132565b506000602082860101526020601f19601f83011685010191505092915050565b600081518084526020808501945080840160005b838110156111a75781516001600160a01b031687529582019590820190600101611182565b509495945050505050565b600081518084526020808501808196508360051b8101915082860160005b858110156111fa5782840389526111e8848351611128565b988501989350908401906001016111d0565b5091979650505050505050565b600061018082518452602083015181602086015261122782860182611128565b915050604083015184820360408601526112418282611128565b915050606083015160608501526080830151608085015260a083015161126b60a086018215159052565b5060c083015161128660c08601826001600160a01b03169052565b5060e083810151908501526101008084015190850152610120808401519085015261014080840151858303828701526112bf838261116e565b9250505061016080840151858303828701526112db83826111b2565b9695505050505050565b6000602080830181845280855180835260408601915060408160051b870101925083870160005b8281101561133a57603f19888603018452611328858351611207565b9450928501929085019060010161130c565b5092979650505050505050565b60208152600061135a6020830184611207565b9392505050565b60208082526028908201527f456e642074696d65206d7573742062652067726561746572207468616e2073746040820152676172742074696d6560c01b606082015260800190565b600181811c908216806113bd57607f821691505b6020821081036113dd57634e487b7160e01b600052602260045260246000fd5b50919050565b601f82111561142d57600081815260208120601f850160051c8101602086101561140a5750805b601f850160051c820191505b8181101561142957828155600101611416565b5050505b505050565b815167ffffffffffffffff81111561144c5761144c610f79565b6114608161145a84546113a9565b846113e3565b602080601f831160018114611495576000841561147d5750858301515b600019600386901b1c1916600185901b178555611429565b600085815260208120601f198616915b828110156114c4578886015182559484019460019091019084016114a5565b50858210156114e25787850151600019600388901b60f8161c191681555b5050505050600190811b01905550565b634e487b7160e01b600052601160045260246000fd5b60006001820161151a5761151a6114f2565b5060010190565b634e487b7160e01b600052603260045260246000fd5b808202811582820484141761154e5761154e6114f2565b92915050565b8082018082111561154e5761154e6114f256fea26469706673582212202159611040772bdf252fa48c9b9b55f24cc5a380baee3243944bec1df769a79a64736f6c63430008110033",
  "linkReferences": {},
  "deployedLinkReferences": {}
}