{
  "_format": "hh-sol-artifact-1",
  "contractName": "DappVotes",
  "sourceName": "contracts/DappVotes.sol",
  "abi": [
    {
      "anonymous": false,
      "inputs": [
        {
          "indexed": true,
          "internalType": "address",
          "name": "voter",
          "type": "address"
        },
        {
          "indexed": false,
          "internalType": "uint256",
          "name": "time",
          "type": "uint256"
        }
      ],
      "name": "VoteCast",
      "type": "event"
    },
    {
      "inputs": [
        {
          "internalType": "uint256",
          "name": "id",
          "type": "uint256"
        },
        {
          "internalType": "string",
          "name": "name",
          "type": "string"
        },
        {
          "internalType": "string",
          "name": "picture",
          "type": "string"
        }
      ],
      "name": "addContestant",
      "outputs": [],
      "stateMutability": "nonpayable",
      "type": "function"
    },
    {
      "inputs": [
        {
          "internalType": "uint256",
          "name": "id",
          "type": "uint256"
        },
        {
          "internalType": "uint256",
          "name": "contestantId",
          "type": "uint256"
        }
      ],
      "name": "castVote",
      "outputs": [],
      "stateMutability": "nonpayable",
      "type": "function"
    },
    {
      "inputs": [
        {
          "internalType": "string",
          "name": "name",
          "type": "string"
        },
        {
          "internalType": "string",
          "name": "info",
          "type": "string"
        },
        {
          "internalType": "uint256",
          "name": "startTime",
          "type": "uint256"
        },
        {
          "internalType": "uint256",
          "name": "endTime",
          "type": "uint256"
        }
      ],
      "name": "createPoll",
      "outputs": [],
      "stateMutability": "nonpayable",
      "type": "function"
    },
    {
      "inputs": [
        {
          "internalType": "uint256",
          "name": "id",
          "type": "uint256"
        },
        {
          "internalType": "uint256",
          "name": "contestantId",
          "type": "uint256"
        }
      ],
      "name": "getContestantDetails",
      "outputs": [
        {
          "components": [
            {
              "internalType": "uint256",
              "name": "id",
              "type": "uint256"
            },
            {
              "internalType": "string",
              "name": "picture",
              "type": "string"
            },
            {
              "internalType": "string",
              "name": "contestantName",
              "type": "string"
            },
            {
              "internalType": "address",
              "name": "participant",
              "type": "address"
            },
            {
              "internalType": "uint256",
              "name": "voteCount",
              "type": "uint256"
            },
            {
              "internalType": "address[]",
              "name": "voters",
              "type": "address[]"
            }
          ],
          "internalType": "struct DappVotes.Contestant",
          "name": "",
          "type": "tuple"
        }
      ],
      "stateMutability": "view",
      "type": "function"
    },
    {
      "inputs": [
        {
          "internalType": "uint256",
          "name": "id",
          "type": "uint256"
        }
      ],
      "name": "getPollDetails",
      "outputs": [
        {
          "components": [
            {
              "internalType": "uint256",
              "name": "id",
              "type": "uint256"
            },
            {
              "internalType": "string",
              "name": "name",
              "type": "string"
            },
            {
              "internalType": "string",
              "name": "info",
              "type": "string"
            },
            {
              "internalType": "uint256",
              "name": "voteCount",
              "type": "uint256"
            },
            {
              "internalType": "uint256",
              "name": "contestantCount",
              "type": "uint256"
            },
            {
              "internalType": "bool",
              "name": "isDeleted",
              "type": "bool"
            },
            {
              "internalType": "address",
              "name": "creator",
              "type": "address"
            },
            {
              "internalType": "uint256",
              "name": "startTime",
              "type": "uint256"
            },
            {
              "internalType": "uint256",
              "name": "endTime",
              "type": "uint256"
            },
            {
              "internalType": "uint256",
              "name": "createdTime",
              "type": "uint256"
            },
            {
              "internalType": "address[]",
              "name": "voters",
              "type": "address[]"
            },
            {
              "internalType": "string[]",
              "name": "images",
              "type": "string[]"
            }
          ],
          "internalType": "struct DappVotes.Poll",
          "name": "",
          "type": "tuple"
        }
      ],
      "stateMutability": "view",
      "type": "function"
    },
    {
      "inputs": [
        {
          "internalType": "uint256",
          "name": "id",
          "type": "uint256"
        }
      ],
      "name": "listContestants",
      "outputs": [
        {
          "components": [
            {
              "internalType": "uint256",
              "name": "id",
              "type": "uint256"
            },
            {
              "internalType": "string",
              "name": "picture",
              "type": "string"
            },
            {
              "internalType": "string",
              "name": "contestantName",
              "type": "string"
            },
            {
              "internalType": "address",
              "name": "participant",
              "type": "address"
            },
            {
              "internalType": "uint256",
              "name": "voteCount",
              "type": "uint256"
            },
            {
              "internalType": "address[]",
              "name": "voters",
              "type": "address[]"
            }
          ],
          "internalType": "struct DappVotes.Contestant[]",
          "name": "availableContestants",
          "type": "tuple[]"
        }
      ],
      "stateMutability": "view",
      "type": "function"
    },
    {
      "inputs": [],
      "name": "listPolls",
      "outputs": [
        {
          "components": [
            {
              "internalType": "uint256",
              "name": "id",
              "type": "uint256"
            },
            {
              "internalType": "string",
              "name": "name",
              "type": "string"
            },
            {
              "internalType": "string",
              "name": "info",
              "type": "string"
            },
            {
              "internalType": "uint256",
              "name": "voteCount",
              "type": "uint256"
            },
            {
              "internalType": "uint256",
              "name": "contestantCount",
              "type": "uint256"
            },
            {
              "internalType": "bool",
              "name": "isDeleted",
              "type": "bool"
            },
            {
              "internalType": "address",
              "name": "creator",
              "type": "address"
            },
            {
              "internalType": "uint256",
              "name": "startTime",
              "type": "uint256"
            },
            {
              "internalType": "uint256",
              "name": "endTime",
              "type": "uint256"
            },
            {
              "internalType": "uint256",
              "name": "createdTime",
              "type": "uint256"
            },
            {
              "internalType": "address[]",
              "name": "voters",
              "type": "address[]"
            },
            {
              "internalType": "string[]",
              "name": "images",
              "type": "string[]"
            }
          ],
          "internalType": "struct DappVotes.Poll[]",
          "name": "availablePolls",
          "type": "tuple[]"
        }
      ],
      "stateMutability": "view",
      "type": "function"
    },
    {
      "inputs": [
        {
          "internalType": "uint256",
          "name": "id",
          "type": "uint256"
        },
        {
          "internalType": "string",
          "name": "name",
          "type": "string"
        },
        {
          "internalType": "string",
          "name": "info",
          "type": "string"
        },
        {
          "internalType": "uint256",
          "name": "startTime",
          "type": "uint256"
        },
        {
          "internalType": "uint256",
          "name": "endTime",
          "type": "uint256"
        }
      ],
      "name": "modifyPoll",
      "outputs": [],
      "stateMutability": "nonpayable",
      "type": "function"
    },
    {
      "inputs": [
        {
          "internalType": "uint256",
          "name": "id",
          "type": "uint256"
        }
      ],
      "name": "removePoll",
      "outputs": [],
      "stateMutability": "nonpayable",
      "type": "function"
    }
  ],
  "bytecode": "0x608060405234801561001057600080fd5b506121c1806100206000396000f3fe608060405234801561001057600080fd5b50600436106100935760003560e01c806378e3db751161006657806378e3db75146100e65780639a0040e414610104578063dd2b4bd414610124578063eb9c155414610144578063f788fe451461015757600080fd5b806306aceddc146100985780632c0a3f89146100ad57806334bfce7f146100c05780634412f75e146100d3575b600080fd5b6100ab6100a6366004611a4a565b610177565b005b6100ab6100bb366004611abe565b6103c9565b6100ab6100ce366004611ae0565b61069b565b6100ab6100e1366004611af9565b610778565b6100ee61097b565b6040516100fb9190611d38565b60405180910390f35b610117610112366004611ae0565b610d64565b6040516100fb9190611d9a565b610137610132366004611ae0565b611054565b6040516100fb9190611e2b565b6100ab610152366004611e80565b611358565b61016a610165366004611abe565b6115bc565b6040516100fb9190611eed565b60008451116101a15760405162461bcd60e51b815260040161019890611f00565b60405180910390fd5b60008351116101f25760405162461bcd60e51b815260206004820152601b60248201527f4465736372697074696f6e2063616e6e6f7420626520656d70747900000000006044820152606401610198565b6000821161024c5760405162461bcd60e51b815260206004820152602160248201527f53746172742074696d65206d7573742062652067726561746572207468616e206044820152600360fc1b6064820152608401610198565b81811161026b5760405162461bcd60e51b815260040161019890611f2e565b610279600080546001019055565b6102816117d6565b6000548152602081018590526040810184905260e0810183905261010081018290523360c08201526102b16117b7565b61012082015280516000908152600360209081526040909120825181559082015182919060018201906102e49082611fff565b50604082015160028201906102f99082611fff565b50606082015160038201556080820151600482015560a082015160058201805460c08501516001600160a81b0319909116921515610100600160a81b031916929092176101006001600160a01b03909316830217905560e08301516006830155820151600782015561012082015160088201556101408201518051610388916009840191602090910190611842565b5061016082015180516103a591600a8401916020909101906118a7565b505090516000908152600260205260409020805460ff191660011790555050505050565b60008281526002602052604090205460ff166103f75760405162461bcd60e51b8152600401610198906120bf565b600082815260046020908152604080832033845290915290205460ff16156104515760405162461bcd60e51b815260206004820152600d60248201526c105b1c9958591e481d9bdd1959609a1b6044820152606401610198565b60008281526003602052604090206005015460ff16156104a85760405162461bcd60e51b8152602060048201526012602482015271506f6c6c206e6f7420617661696c61626c6560701b6044820152606401610198565b6000828152600360205260409020600401546001106105025760405162461bcd60e51b81526020600482015260166024820152754e6f7420656e6f75676820636f6e74657374616e747360501b6044820152606401610198565b60008281526003602052604090206006015461051c6117b7565b10158015610541575060008281526003602052604090206007015461053f6117b7565b105b6105855760405162461bcd60e51b8152602060048201526015602482015274159bdd1a5b99c81c195c9a5bd9081a5b9d985b1a59605a1b6044820152606401610198565b60008281526003602081905260408220018054916105a283612102565b9091555050600082815260036020908152604080832060090180546001810182559084528284200180546001600160a01b031916331790558483526006825280832084845290915281206004018054916105fb83612102565b9091555050600082815260066020908152604080832084845282528083206005018054600181810183559185528385200180546001600160a01b03191633908117909155868552600484528285208186529093529220805460ff19169092179091557fa36cc2bebb74db33e9f88110a07ef56e1b31b24b4c4f51b54b1664266e29f45b6106866117b7565b60405190815260200160405180910390a25050565b60008181526002602052604090205460ff166106c95760405162461bcd60e51b8152600401610198906120bf565b60008181526003602052604090206005015461010090046001600160a01b031633146107285760405162461bcd60e51b815260206004820152600e60248201526d139bdd08185d5d1a1bdc9a5e995960921b6044820152606401610198565b6000818152600360208190526040909120015460011161075a5760405162461bcd60e51b81526004016101989061211b565b6000908152600360205260409020600501805460ff19166001179055565b60008581526002602052604090205460ff166107a65760405162461bcd60e51b8152600401610198906120bf565b60008581526003602052604090206005015461010090046001600160a01b031633146108055760405162461bcd60e51b815260206004820152600e60248201526d139bdd08185d5d1a1bdc9a5e995960921b6044820152606401610198565b60008451116108265760405162461bcd60e51b815260040161019890611f00565b60008351116108775760405162461bcd60e51b815260206004820152601b60248201527f4465736372697074696f6e2063616e6e6f7420626520656d70747900000000006044820152606401610198565b60008581526003602052604090206005015460ff16156108d05760405162461bcd60e51b8152602060048201526014602482015273141bdb1b08185b1c9958591e4819195b195d195960621b6044820152606401610198565b600085815260036020819052604090912001546001116109025760405162461bcd60e51b81526004016101989061211b565b8181116109215760405162461bcd60e51b815260040161019890611f2e565b600085815260036020526040902060010161093c8582611fff565b5060008581526003602052604090206002016109588482611fff565b506000948552600360205260409094206006810191909155600701929092555050565b6060600060015b60005481116109c45760008181526003602052604090206005015460ff166109b257816109ae81612102565b9250505b806109bc81612102565b915050610982565b508067ffffffffffffffff8111156109de576109de6119a7565b604051908082528060200260200182016040528015610a1757816020015b610a046117d6565b8152602001906001900390816109fc5790505b509150600060015b6000548111610d5e5760008181526003602052604090206005015460ff16610d4c57600360008281526020019081526020016000206040518061018001604052908160008201548152602001600182018054610a7a90611f76565b80601f0160208091040260200160405190810160405280929190818152602001828054610aa690611f76565b8015610af35780601f10610ac857610100808354040283529160200191610af3565b820191906000526020600020905b815481529060010190602001808311610ad657829003601f168201915b50505050508152602001600282018054610b0c90611f76565b80601f0160208091040260200160405190810160405280929190818152602001828054610b3890611f76565b8015610b855780601f10610b5a57610100808354040283529160200191610b85565b820191906000526020600020905b815481529060010190602001808311610b6857829003601f168201915b505050918352505060038201546020808301919091526004830154604080840191909152600584015460ff8116151560608501526001600160a01b0361010091829004166080850152600685015460a0850152600785015460c0850152600885015460e085015260098501805483518186028101860190945280845291909401939192830182828015610c4157602002820191906000526020600020905b81546001600160a01b03168152600190910190602001808311610c23575b50505050508152602001600a8201805480602002602001604051908101604052809291908181526020016000905b82821015610d1b578382906000526020600020018054610c8e90611f76565b80601f0160208091040260200160405190810160405280929190818152602001828054610cba90611f76565b8015610d075780601f10610cdc57610100808354040283529160200191610d07565b820191906000526020600020905b815481529060010190602001808311610cea57829003601f168201915b505050505081526020019060010190610c6f565b50505091525085905083610d2e81612102565b945081518110610d4057610d4061214b565b60200260200101819052505b80610d5681612102565b915050610a1f565b50505090565b610d6c6117d6565b600360008381526020019081526020016000206040518061018001604052908160008201548152602001600182018054610da590611f76565b80601f0160208091040260200160405190810160405280929190818152602001828054610dd190611f76565b8015610e1e5780601f10610df357610100808354040283529160200191610e1e565b820191906000526020600020905b815481529060010190602001808311610e0157829003601f168201915b50505050508152602001600282018054610e3790611f76565b80601f0160208091040260200160405190810160405280929190818152602001828054610e6390611f76565b8015610eb05780601f10610e8557610100808354040283529160200191610eb0565b820191906000526020600020905b815481529060010190602001808311610e9357829003601f168201915b505050918352505060038201546020808301919091526004830154604080840191909152600584015460ff8116151560608501526001600160a01b0361010091829004166080850152600685015460a0850152600785015460c0850152600885015460e085015260098501805483518186028101860190945280845291909401939192830182828015610f6c57602002820191906000526020600020905b81546001600160a01b03168152600190910190602001808311610f4e575b50505050508152602001600a8201805480602002602001604051908101604052809291908181526020016000905b82821015611046578382906000526020600020018054610fb990611f76565b80601f0160208091040260200160405190810160405280929190818152602001828054610fe590611f76565b80156110325780601f1061100757610100808354040283529160200191611032565b820191906000526020600020905b81548152906001019060200180831161101557829003601f168201915b505050505081526020019060010190610f9a565b505050915250909392505050565b6060600060015b60015481116110a5576000848152600660209081526040808320848452909152902054819003611093578161108f81612102565b9250505b8061109d81612102565b91505061105b565b508067ffffffffffffffff8111156110bf576110bf6119a7565b6040519080825280602002602001820160405280156110f857816020015b6110e56118f9565b8152602001906001900390816110dd5790505b509150600060015b600154811161135057600085815260066020908152604080832084845290915290205481900361133e576000858152600660209081526040808320848452825291829020825160c0810190935280548352600181018054919284019161116590611f76565b80601f016020809104026020016040519081016040528092919081815260200182805461119190611f76565b80156111de5780601f106111b3576101008083540402835291602001916111de565b820191906000526020600020905b8154815290600101906020018083116111c157829003601f168201915b505050505081526020016002820180546111f790611f76565b80601f016020809104026020016040519081016040528092919081815260200182805461122390611f76565b80156112705780601f1061124557610100808354040283529160200191611270565b820191906000526020600020905b81548152906001019060200180831161125357829003601f168201915b505050505081526020016003820160009054906101000a90046001600160a01b03166001600160a01b03166001600160a01b03168152602001600482015481526020016005820180548060200260200160405190810160405280929190818152602001828054801561130b57602002820191906000526020600020905b81546001600160a01b031681526001909101906020018083116112ed575b50505050508152505084838061132090612102565b9450815181106113325761133261214b565b60200260200101819052505b8061134881612102565b915050611100565b505050919050565b60008381526002602052604090205460ff166113865760405162461bcd60e51b8152600401610198906120bf565b60008251116113a75760405162461bcd60e51b815260040161019890611f00565b60008151116113f85760405162461bcd60e51b815260206004820152601760248201527f506963747572652063616e6e6f7420626520656d7074790000000000000000006044820152606401610198565b6000838152600360208190526040909120015460011161142a5760405162461bcd60e51b81526004016101989061211b565b600083815260056020908152604080832033845290915290205460ff16156114885760405162461bcd60e51b8152602060048201526011602482015270105b1c9958591e4818dbdb9d195cdd1959607a1b6044820152606401610198565b611496600180546001019055565b61149e6118f9565b600180548252602080830184815260408085018790523360608601526000888152600684528181208651825290935290912083518155905183928201906114e59082611fff565b50604082015160028201906114fa9082611fff565b5060608201516003820180546001600160a01b0319166001600160a01b039092169190911790556080820151600482015560a08201518051611546916005840191602090910190611842565b50505060008481526005602090815260408083203384528252808320805460ff1916600190811790915587845260038352908320600a018054918201815583529120016115938382611fff565b5060008481526003602052604081206004018054916115b183612102565b919050555050505050565b6115c46118f9565b6000838152600660209081526040808320858452825291829020825160c081019093528054835260018101805491928401916115ff90611f76565b80601f016020809104026020016040519081016040528092919081815260200182805461162b90611f76565b80156116785780601f1061164d57610100808354040283529160200191611678565b820191906000526020600020905b81548152906001019060200180831161165b57829003601f168201915b5050505050815260200160028201805461169190611f76565b80601f01602080910402602001604051908101604052809291908181526020018280546116bd90611f76565b801561170a5780601f106116df5761010080835404028352916020019161170a565b820191906000526020600020905b8154815290600101906020018083116116ed57829003601f168201915b505050505081526020016003820160009054906101000a90046001600160a01b03166001600160a01b03166001600160a01b0316815260200160048201548152602001600582018054806020026020016040519081016040528092919081815260200182805480156117a557602002820191906000526020600020905b81546001600160a01b03168152600190910190602001808311611787575b50505050508152505090505b92915050565b60006117c5426103e8612161565b6117d1906103e8612178565b905090565b604051806101800160405280600081526020016060815260200160608152602001600081526020016000815260200160001515815260200160006001600160a01b0316815260200160008152602001600081526020016000815260200160608152602001606081525090565b828054828255906000526020600020908101928215611897579160200282015b8281111561189757825182546001600160a01b0319166001600160a01b03909116178255602090920191600190910190611862565b506118a3929150611938565b5090565b8280548282559060005260206000209081019282156118ed579160200282015b828111156118ed57825182906118dd9082611fff565b50916020019190600101906118c7565b506118a392915061194d565b6040518060c0016040528060008152602001606081526020016060815260200160006001600160a01b0316815260200160008152602001606081525090565b5b808211156118a35760008155600101611939565b808211156118a3576000611961828261196a565b5060010161194d565b50805461197690611f76565b6000825580601f10611986575050565b601f0160209004906000526020600020908101906119a49190611938565b50565b634e487b7160e01b600052604160045260246000fd5b600082601f8301126119ce57600080fd5b813567ffffffffffffffff808211156119e9576119e96119a7565b604051601f8301601f19908116603f01168101908282118183101715611a1157611a116119a7565b81604052838152866020858801011115611a2a57600080fd5b836020870160208301376000602085830101528094505050505092915050565b60008060008060808587031215611a6057600080fd5b843567ffffffffffffffff80821115611a7857600080fd5b611a84888389016119bd565b95506020870135915080821115611a9a57600080fd5b50611aa7878288016119bd565b949794965050505060408301359260600135919050565b60008060408385031215611ad157600080fd5b50508035926020909101359150565b600060208284031215611af257600080fd5b5035919050565b600080600080600060a08688031215611b1157600080fd5b85359450602086013567ffffffffffffffff80821115611b3057600080fd5b611b3c89838a016119bd565b95506040880135915080821115611b5257600080fd5b50611b5f888289016119bd565b9598949750949560608101359550608001359392505050565b6000815180845260005b81811015611b9e57602081850181015186830182015201611b82565b506000602082860101526020601f19601f83011685010191505092915050565b600081518084526020808501945080840160005b83811015611bf75781516001600160a01b031687529582019590820190600101611bd2565b509495945050505050565b600082825180855260208086019550808260051b84010181860160005b84811015611c4d57601f19868403018952611c3b838351611b78565b98840198925090830190600101611c1f565b5090979650505050505050565b6000610180825184526020830151816020860152611c7a82860182611b78565b91505060408301518482036040860152611c948282611b78565b915050606083015160608501526080830151608085015260a0830151611cbe60a086018215159052565b5060c0830151611cd960c08601826001600160a01b03169052565b5060e08381015190850152610100808401519085015261012080840151908501526101408084015185830382870152611d128382611bbe565b925050506101608084015185830382870152611d2e8382611c02565b9695505050505050565b6000602080830181845280855180835260408601915060408160051b870101925083870160005b82811015611d8d57603f19888603018452611d7b858351611c5a565b94509285019290850190600101611d5f565b5092979650505050505050565b602081526000611dad6020830184611c5a565b9392505050565b805182526000602082015160c06020850152611dd360c0850182611b78565b905060408301518482036040860152611dec8282611b78565b91505060018060a01b0360608401511660608501526080830151608085015260a083015184820360a0860152611e228282611bbe565b95945050505050565b6000602080830181845280855180835260408601915060408160051b870101925083870160005b82811015611d8d57603f19888603018452611e6e858351611db4565b94509285019290850190600101611e52565b600080600060608486031215611e9557600080fd5b83359250602084013567ffffffffffffffff80821115611eb457600080fd5b611ec0878388016119bd565b93506040860135915080821115611ed657600080fd5b50611ee3868287016119bd565b9150509250925092565b602081526000611dad6020830184611db4565b6020808252601490820152734e616d652063616e6e6f7420626520656d70747960601b604082015260600190565b60208082526028908201527f456e642074696d65206d7573742062652067726561746572207468616e2073746040820152676172742074696d6560c01b606082015260800190565b600181811c90821680611f8a57607f821691505b602082108103611faa57634e487b7160e01b600052602260045260246000fd5b50919050565b601f821115611ffa57600081815260208120601f850160051c81016020861015611fd75750805b601f850160051c820191505b81811015611ff657828155600101611fe3565b5050505b505050565b815167ffffffffffffffff811115612019576120196119a7565b61202d816120278454611f76565b84611fb0565b602080601f831160018114612062576000841561204a5750858301515b600019600386901b1c1916600185901b178555611ff6565b600085815260208120601f198616915b8281101561209157888601518255948401946001909101908401612072565b50858210156120af5787850151600019600388901b60f8161c191681555b5050505050600190811b01905550565b602080825260139082015272141bdb1b08191bd95cc81b9bdd08195e1a5cdd606a1b604082015260600190565b634e487b7160e01b600052601160045260246000fd5b600060018201612114576121146120ec565b5060010190565b602080825260169082015275506f6c6c20616c72656164792068617320766f74657360501b604082015260600190565b634e487b7160e01b600052603260045260246000fd5b80820281158282048414176117b1576117b16120ec565b808201808211156117b1576117b16120ec56fea264697066735822122051c617490710c6e8eeea9c4556ab7cf84493d15174e773838e307f27746227f064736f6c63430008110033",
  "linkReferences": {},
  "deployedLinkReferences": {}
}