{
  "_format": "hh-sol-artifact-1",
  "contractName": "DappVotes",
  "sourceName": "contracts/DappVotes.sol",
  "abi": [
    {
      "anonymous": false,
      "inputs": [
        {
          "indexed": true,
          "internalType": "address",
          "name": "voter",
          "type": "address"
        },
        {
          "indexed": false,
          "internalType": "uint256",
          "name": "time",
          "type": "uint256"
        }
      ],
      "name": "VoteCast",
      "type": "event"
    },
    {
      "inputs": [
        {
          "internalType": "string",
          "name": "name",
          "type": "string"
        },
        {
          "internalType": "string",
          "name": "info",
          "type": "string"
        },
        {
          "internalType": "uint256",
          "name": "startTime",
          "type": "uint256"
        },
        {
          "internalType": "uint256",
          "name": "endTime",
          "type": "uint256"
        }
      ],
      "name": "createPoll",
      "outputs": [],
      "stateMutability": "nonpayable",
      "type": "function"
    },
    {
      "inputs": [
        {
          "internalType": "uint256",
          "name": "id",
          "type": "uint256"
        }
      ],
      "name": "getPollDetails",
      "outputs": [
        {
          "components": [
            {
              "internalType": "uint256",
              "name": "id",
              "type": "uint256"
            },
            {
              "internalType": "string",
              "name": "name",
              "type": "string"
            },
            {
              "internalType": "string",
              "name": "info",
              "type": "string"
            },
            {
              "internalType": "uint256",
              "name": "voteCount",
              "type": "uint256"
            },
            {
              "internalType": "uint256",
              "name": "contestantCount",
              "type": "uint256"
            },
            {
              "internalType": "bool",
              "name": "isDeleted",
              "type": "bool"
            },
            {
              "internalType": "address",
              "name": "creator",
              "type": "address"
            },
            {
              "internalType": "uint256",
              "name": "startTime",
              "type": "uint256"
            },
            {
              "internalType": "uint256",
              "name": "endTime",
              "type": "uint256"
            },
            {
              "internalType": "uint256",
              "name": "createdTime",
              "type": "uint256"
            },
            {
              "internalType": "address[]",
              "name": "voters",
              "type": "address[]"
            },
            {
              "internalType": "string[]",
              "name": "images",
              "type": "string[]"
            }
          ],
          "internalType": "struct DappVotes.Poll",
          "name": "",
          "type": "tuple"
        }
      ],
      "stateMutability": "view",
      "type": "function"
    },
    {
      "inputs": [],
      "name": "listPolls",
      "outputs": [
        {
          "components": [
            {
              "internalType": "uint256",
              "name": "id",
              "type": "uint256"
            },
            {
              "internalType": "string",
              "name": "name",
              "type": "string"
            },
            {
              "internalType": "string",
              "name": "info",
              "type": "string"
            },
            {
              "internalType": "uint256",
              "name": "voteCount",
              "type": "uint256"
            },
            {
              "internalType": "uint256",
              "name": "contestantCount",
              "type": "uint256"
            },
            {
              "internalType": "bool",
              "name": "isDeleted",
              "type": "bool"
            },
            {
              "internalType": "address",
              "name": "creator",
              "type": "address"
            },
            {
              "internalType": "uint256",
              "name": "startTime",
              "type": "uint256"
            },
            {
              "internalType": "uint256",
              "name": "endTime",
              "type": "uint256"
            },
            {
              "internalType": "uint256",
              "name": "createdTime",
              "type": "uint256"
            },
            {
              "internalType": "address[]",
              "name": "voters",
              "type": "address[]"
            },
            {
              "internalType": "string[]",
              "name": "images",
              "type": "string[]"
            }
          ],
          "internalType": "struct DappVotes.Poll[]",
          "name": "availablePolls",
          "type": "tuple[]"
        }
      ],
      "stateMutability": "view",
      "type": "function"
    }
  ],
  "bytecode": "0x608060405234801561001057600080fd5b50611139806100206000396000f3fe608060405234801561001057600080fd5b50600436106100415760003560e01c806306aceddc1461004657806378e3db751461005b5780639a0040e414610079575b600080fd5b610059610054366004610c7c565b610099565b005b61006361034f565b6040516100709190610eb0565b60405180910390f35b61008c610087366004610f12565b610738565b6040516100709190610f2b565b60008451116100e65760405162461bcd60e51b81526020600482015260146024820152734e616d652063616e6e6f7420626520656d70747960601b60448201526064015b60405180910390fd5b60008351116101375760405162461bcd60e51b815260206004820152601b60248201527f4465736372697074696f6e2063616e6e6f7420626520656d707479000000000060448201526064016100dd565b600082116101915760405162461bcd60e51b815260206004820152602160248201527f53746172742074696d65206d7573742062652067726561746572207468616e206044820152600360fc1b60648201526084016100dd565b8181116101f15760405162461bcd60e51b815260206004820152602860248201527f456e642074696d65206d7573742062652067726561746572207468616e2073746044820152676172742074696d6560c01b60648201526084016100dd565b6101ff600080546001019055565b610207610a47565b6000548152602081018590526040810184905260e0810183905261010081018290523360c0820152610237610a28565b610120820152805160009081526003602090815260409091208251815590820151829190600182019061026a9082610fce565b506040820151600282019061027f9082610fce565b50606082015160038201556080820151600482015560a082015160058201805460c08501516001600160a81b0319909116921515610100600160a81b031916929092176101006001600160a01b03909316830217905560e0830151600683015582015160078201556101208201516008820155610140820151805161030e916009840191602090910190610ab3565b50610160820151805161032b91600a840191602090910190610b18565b505090516000908152600260205260409020805460ff191660011790555050505050565b6060600060015b60005481116103985760008181526003602052604090206005015460ff166103865781610382816110a4565b9250505b80610390816110a4565b915050610356565b508067ffffffffffffffff8111156103b2576103b2610bd9565b6040519080825280602002602001820160405280156103eb57816020015b6103d8610a47565b8152602001906001900390816103d05790505b509150600060015b60005481116107325760008181526003602052604090206005015460ff166107205760036000828152602001908152602001600020604051806101800160405290816000820154815260200160018201805461044e90610f45565b80601f016020809104026020016040519081016040528092919081815260200182805461047a90610f45565b80156104c75780601f1061049c576101008083540402835291602001916104c7565b820191906000526020600020905b8154815290600101906020018083116104aa57829003601f168201915b505050505081526020016002820180546104e090610f45565b80601f016020809104026020016040519081016040528092919081815260200182805461050c90610f45565b80156105595780601f1061052e57610100808354040283529160200191610559565b820191906000526020600020905b81548152906001019060200180831161053c57829003601f168201915b505050918352505060038201546020808301919091526004830154604080840191909152600584015460ff8116151560608501526001600160a01b0361010091829004166080850152600685015460a0850152600785015460c0850152600885015460e08501526009850180548351818602810186019094528084529190940193919283018282801561061557602002820191906000526020600020905b81546001600160a01b031681526001909101906020018083116105f7575b50505050508152602001600a8201805480602002602001604051908101604052809291908181526020016000905b828210156106ef57838290600052602060002001805461066290610f45565b80601f016020809104026020016040519081016040528092919081815260200182805461068e90610f45565b80156106db5780601f106106b0576101008083540402835291602001916106db565b820191906000526020600020905b8154815290600101906020018083116106be57829003601f168201915b505050505081526020019060010190610643565b50505091525085905083610702816110a4565b945081518110610714576107146110bd565b60200260200101819052505b8061072a816110a4565b9150506103f3565b50505090565b610740610a47565b60036000838152602001908152602001600020604051806101800160405290816000820154815260200160018201805461077990610f45565b80601f01602080910402602001604051908101604052809291908181526020018280546107a590610f45565b80156107f25780601f106107c7576101008083540402835291602001916107f2565b820191906000526020600020905b8154815290600101906020018083116107d557829003601f168201915b5050505050815260200160028201805461080b90610f45565b80601f016020809104026020016040519081016040528092919081815260200182805461083790610f45565b80156108845780601f1061085957610100808354040283529160200191610884565b820191906000526020600020905b81548152906001019060200180831161086757829003601f168201915b505050918352505060038201546020808301919091526004830154604080840191909152600584015460ff8116151560608501526001600160a01b0361010091829004166080850152600685015460a0850152600785015460c0850152600885015460e08501526009850180548351818602810186019094528084529190940193919283018282801561094057602002820191906000526020600020905b81546001600160a01b03168152600190910190602001808311610922575b50505050508152602001600a8201805480602002602001604051908101604052809291908181526020016000905b82821015610a1a57838290600052602060002001805461098d90610f45565b80601f01602080910402602001604051908101604052809291908181526020018280546109b990610f45565b8015610a065780601f106109db57610100808354040283529160200191610a06565b820191906000526020600020905b8154815290600101906020018083116109e957829003601f168201915b50505050508152602001906001019061096e565b505050915250909392505050565b6000610a36426103e86110d3565b610a42906103e86110f0565b905090565b604051806101800160405280600081526020016060815260200160608152602001600081526020016000815260200160001515815260200160006001600160a01b0316815260200160008152602001600081526020016000815260200160608152602001606081525090565b828054828255906000526020600020908101928215610b08579160200282015b82811115610b0857825182546001600160a01b0319166001600160a01b03909116178255602090920191600190910190610ad3565b50610b14929150610b6a565b5090565b828054828255906000526020600020908101928215610b5e579160200282015b82811115610b5e5782518290610b4e9082610fce565b5091602001919060010190610b38565b50610b14929150610b7f565b5b80821115610b145760008155600101610b6b565b80821115610b14576000610b938282610b9c565b50600101610b7f565b508054610ba890610f45565b6000825580601f10610bb8575050565b601f016020900490600052602060002090810190610bd69190610b6a565b50565b634e487b7160e01b600052604160045260246000fd5b600082601f830112610c0057600080fd5b813567ffffffffffffffff80821115610c1b57610c1b610bd9565b604051601f8301601f19908116603f01168101908282118183101715610c4357610c43610bd9565b81604052838152866020858801011115610c5c57600080fd5b836020870160208301376000602085830101528094505050505092915050565b60008060008060808587031215610c9257600080fd5b843567ffffffffffffffff80821115610caa57600080fd5b610cb688838901610bef565b95506020870135915080821115610ccc57600080fd5b50610cd987828801610bef565b949794965050505060408301359260600135919050565b6000815180845260005b81811015610d1657602081850181015186830182015201610cfa565b506000602082860101526020601f19601f83011685010191505092915050565b600081518084526020808501945080840160005b83811015610d6f5781516001600160a01b031687529582019590820190600101610d4a565b509495945050505050565b600082825180855260208086019550808260051b84010181860160005b84811015610dc557601f19868403018952610db3838351610cf0565b98840198925090830190600101610d97565b5090979650505050505050565b6000610180825184526020830151816020860152610df282860182610cf0565b91505060408301518482036040860152610e0c8282610cf0565b915050606083015160608501526080830151608085015260a0830151610e3660a086018215159052565b5060c0830151610e5160c08601826001600160a01b03169052565b5060e08381015190850152610100808401519085015261012080840151908501526101408084015185830382870152610e8a8382610d36565b925050506101608084015185830382870152610ea68382610d7a565b9695505050505050565b6000602080830181845280855180835260408601915060408160051b870101925083870160005b82811015610f0557603f19888603018452610ef3858351610dd2565b94509285019290850190600101610ed7565b5092979650505050505050565b600060208284031215610f2457600080fd5b5035919050565b602081526000610f3e6020830184610dd2565b9392505050565b600181811c90821680610f5957607f821691505b602082108103610f7957634e487b7160e01b600052602260045260246000fd5b50919050565b601f821115610fc957600081815260208120601f850160051c81016020861015610fa65750805b601f850160051c820191505b81811015610fc557828155600101610fb2565b5050505b505050565b815167ffffffffffffffff811115610fe857610fe8610bd9565b610ffc81610ff68454610f45565b84610f7f565b602080601f83116001811461103157600084156110195750858301515b600019600386901b1c1916600185901b178555610fc5565b600085815260208120601f198616915b8281101561106057888601518255948401946001909101908401611041565b508582101561107e5787850151600019600388901b60f8161c191681555b5050505050600190811b01905550565b634e487b7160e01b600052601160045260246000fd5b6000600182016110b6576110b661108e565b5060010190565b634e487b7160e01b600052603260045260246000fd5b80820281158282048414176110ea576110ea61108e565b92915050565b808201808211156110ea576110ea61108e56fea26469706673582212200f7ee15227b4291ae873e219380a63d2a4d7d5008e8ca83d212d2e9d8e9db4e264736f6c63430008110033",
  "linkReferences": {},
  "deployedLinkReferences": {}
}