{
  "_format": "hh-sol-artifact-1",
  "contractName": "DappVotes",
  "sourceName": "contracts/DappVotes.sol",
  "abi": [
    {
      "anonymous": false,
      "inputs": [
        {
          "indexed": true,
          "internalType": "address",
          "name": "voter",
          "type": "address"
        },
        {
          "indexed": false,
          "internalType": "uint256",
          "name": "time",
          "type": "uint256"
        }
      ],
      "name": "VoteCast",
      "type": "event"
    },
    {
      "inputs": [
        {
          "internalType": "uint256",
          "name": "id",
          "type": "uint256"
        },
        {
          "internalType": "string",
          "name": "name",
          "type": "string"
        },
        {
          "internalType": "string",
          "name": "picture",
          "type": "string"
        },
        {
          "internalType": "string",
          "name": "achievement",
          "type": "string"
        }
      ],
      "name": "addContestant",
      "outputs": [],
      "stateMutability": "nonpayable",
      "type": "function"
    },
    {
      "inputs": [
        {
          "internalType": "uint256",
          "name": "id",
          "type": "uint256"
        },
        {
          "internalType": "uint256",
          "name": "contestantId",
          "type": "uint256"
        }
      ],
      "name": "castVote",
      "outputs": [],
      "stateMutability": "nonpayable",
      "type": "function"
    },
    {
      "inputs": [
        {
          "internalType": "string",
          "name": "name",
          "type": "string"
        },
        {
          "internalType": "string",
          "name": "info",
          "type": "string"
        },
        {
          "internalType": "uint256",
          "name": "startTime",
          "type": "uint256"
        },
        {
          "internalType": "uint256",
          "name": "endTime",
          "type": "uint256"
        }
      ],
      "name": "createPoll",
      "outputs": [],
      "stateMutability": "nonpayable",
      "type": "function"
    },
    {
      "inputs": [
        {
          "internalType": "uint256",
          "name": "id",
          "type": "uint256"
        },
        {
          "internalType": "uint256",
          "name": "contestantId",
          "type": "uint256"
        }
      ],
      "name": "getContestantDetails",
      "outputs": [
        {
          "components": [
            {
              "internalType": "uint256",
              "name": "id",
              "type": "uint256"
            },
            {
              "internalType": "string",
              "name": "picture",
              "type": "string"
            },
            {
              "internalType": "string",
              "name": "contestantName",
              "type": "string"
            },
            {
              "internalType": "string",
              "name": "achievement",
              "type": "string"
            },
            {
              "internalType": "address",
              "name": "participant",
              "type": "address"
            },
            {
              "internalType": "uint256",
              "name": "voteCount",
              "type": "uint256"
            },
            {
              "internalType": "address[]",
              "name": "voters",
              "type": "address[]"
            }
          ],
          "internalType": "struct DappVotes.Contestant",
          "name": "",
          "type": "tuple"
        }
      ],
      "stateMutability": "view",
      "type": "function"
    },
    {
      "inputs": [
        {
          "internalType": "uint256",
          "name": "id",
          "type": "uint256"
        }
      ],
      "name": "getPollDetails",
      "outputs": [
        {
          "components": [
            {
              "internalType": "uint256",
              "name": "id",
              "type": "uint256"
            },
            {
              "internalType": "string",
              "name": "name",
              "type": "string"
            },
            {
              "internalType": "string",
              "name": "info",
              "type": "string"
            },
            {
              "internalType": "uint256",
              "name": "voteCount",
              "type": "uint256"
            },
            {
              "internalType": "uint256",
              "name": "contestantCount",
              "type": "uint256"
            },
            {
              "internalType": "bool",
              "name": "isDeleted",
              "type": "bool"
            },
            {
              "internalType": "address",
              "name": "creator",
              "type": "address"
            },
            {
              "internalType": "uint256",
              "name": "startTime",
              "type": "uint256"
            },
            {
              "internalType": "uint256",
              "name": "endTime",
              "type": "uint256"
            },
            {
              "internalType": "uint256",
              "name": "createdTime",
              "type": "uint256"
            },
            {
              "internalType": "address[]",
              "name": "voters",
              "type": "address[]"
            },
            {
              "internalType": "string[]",
              "name": "images",
              "type": "string[]"
            }
          ],
          "internalType": "struct DappVotes.Poll",
          "name": "",
          "type": "tuple"
        }
      ],
      "stateMutability": "view",
      "type": "function"
    },
    {
      "inputs": [
        {
          "internalType": "uint256",
          "name": "id",
          "type": "uint256"
        }
      ],
      "name": "listContestants",
      "outputs": [
        {
          "components": [
            {
              "internalType": "uint256",
              "name": "id",
              "type": "uint256"
            },
            {
              "internalType": "string",
              "name": "picture",
              "type": "string"
            },
            {
              "internalType": "string",
              "name": "contestantName",
              "type": "string"
            },
            {
              "internalType": "string",
              "name": "achievement",
              "type": "string"
            },
            {
              "internalType": "address",
              "name": "participant",
              "type": "address"
            },
            {
              "internalType": "uint256",
              "name": "voteCount",
              "type": "uint256"
            },
            {
              "internalType": "address[]",
              "name": "voters",
              "type": "address[]"
            }
          ],
          "internalType": "struct DappVotes.Contestant[]",
          "name": "availableContestants",
          "type": "tuple[]"
        }
      ],
      "stateMutability": "view",
      "type": "function"
    },
    {
      "inputs": [],
      "name": "listPolls",
      "outputs": [
        {
          "components": [
            {
              "internalType": "uint256",
              "name": "id",
              "type": "uint256"
            },
            {
              "internalType": "string",
              "name": "name",
              "type": "string"
            },
            {
              "internalType": "string",
              "name": "info",
              "type": "string"
            },
            {
              "internalType": "uint256",
              "name": "voteCount",
              "type": "uint256"
            },
            {
              "internalType": "uint256",
              "name": "contestantCount",
              "type": "uint256"
            },
            {
              "internalType": "bool",
              "name": "isDeleted",
              "type": "bool"
            },
            {
              "internalType": "address",
              "name": "creator",
              "type": "address"
            },
            {
              "internalType": "uint256",
              "name": "startTime",
              "type": "uint256"
            },
            {
              "internalType": "uint256",
              "name": "endTime",
              "type": "uint256"
            },
            {
              "internalType": "uint256",
              "name": "createdTime",
              "type": "uint256"
            },
            {
              "internalType": "address[]",
              "name": "voters",
              "type": "address[]"
            },
            {
              "internalType": "string[]",
              "name": "images",
              "type": "string[]"
            }
          ],
          "internalType": "struct DappVotes.Poll[]",
          "name": "availablePolls",
          "type": "tuple[]"
        }
      ],
      "stateMutability": "view",
      "type": "function"
    },
    {
      "inputs": [
        {
          "internalType": "uint256",
          "name": "id",
          "type": "uint256"
        },
        {
          "internalType": "string",
          "name": "name",
          "type": "string"
        },
        {
          "internalType": "string",
          "name": "info",
          "type": "string"
        },
        {
          "internalType": "uint256",
          "name": "startTime",
          "type": "uint256"
        },
        {
          "internalType": "uint256",
          "name": "endTime",
          "type": "uint256"
        }
      ],
      "name": "modifyPoll",
      "outputs": [],
      "stateMutability": "nonpayable",
      "type": "function"
    },
    {
      "inputs": [
        {
          "internalType": "uint256",
          "name": "id",
          "type": "uint256"
        }
      ],
      "name": "removePoll",
      "outputs": [],
      "stateMutability": "nonpayable",
      "type": "function"
    }
  ],
  "bytecode": "0x608060405234801561001057600080fd5b5061239a806100206000396000f3fe608060405234801561001057600080fd5b50600436106100935760003560e01c806378e3db751161006657806378e3db75146100e6578063960f1f17146101045780639a0040e414610117578063dd2b4bd414610137578063f788fe451461015757600080fd5b806306aceddc146100985780632c0a3f89146100ad57806334bfce7f146100c05780634412f75e146100d3575b600080fd5b6100ab6100a6366004611be4565b610177565b005b6100ab6100bb366004611c58565b6103c9565b6100ab6100ce366004611c7a565b61069c565b6100ab6100e1366004611c93565b610779565b6100ee61097c565b6040516100fb9190611ed2565b60405180910390f35b6100ab610112366004611f34565b610d65565b61012a610125366004611c7a565b611037565b6040516100fb9190611fc6565b61014a610145366004611c7a565b611327565b6040516100fb9190612071565b61016a610165366004611c58565b6116bd565b6040516100fb91906120c6565b60008451116101a15760405162461bcd60e51b8152600401610198906120d9565b60405180910390fd5b60008351116101f25760405162461bcd60e51b815260206004820152601b60248201527f4465736372697074696f6e2063616e6e6f7420626520656d70747900000000006044820152606401610198565b6000821161024c5760405162461bcd60e51b815260206004820152602160248201527f53746172742074696d65206d7573742062652067726561746572207468616e206044820152600360fc1b6064820152608401610198565b81811161026b5760405162461bcd60e51b815260040161019890612107565b610279600080546001019055565b610281611969565b6000548152602081018590526040810184905260e0810183905261010081018290523360c08201526102b161194a565b61012082015280516000908152600360209081526040909120825181559082015182919060018201906102e490826121d8565b50604082015160028201906102f990826121d8565b50606082015160038201556080820151600482015560a082015160058201805460c08501516001600160a81b0319909116921515610100600160a81b031916929092176101006001600160a01b03909316830217905560e083015160068301558201516007820155610120820151600882015561014082015180516103889160098401916020909101906119d5565b5061016082015180516103a591600a840191602090910190611a3a565b505090516000908152600260205260409020805460ff191660011790555050505050565b60008281526002602052604090205460ff166103f75760405162461bcd60e51b815260040161019890612298565b600082815260046020908152604080832033845290915290205460ff16156104515760405162461bcd60e51b815260206004820152600d60248201526c105b1c9958591e481d9bdd1959609a1b6044820152606401610198565b60008281526003602052604090206005015460ff16156104a85760405162461bcd60e51b8152602060048201526012602482015271506f6c6c206e6f7420617661696c61626c6560701b6044820152606401610198565b6000828152600360205260409020600401546001106105025760405162461bcd60e51b81526020600482015260166024820152754e6f7420656e6f75676820636f6e74657374616e747360501b6044820152606401610198565b60008281526003602052604090206006015461051c61194a565b10158015610541575060008281526003602052604090206007015461053f61194a565b105b6105855760405162461bcd60e51b8152602060048201526015602482015274159bdd1a5b99c81c195c9a5bd9081a5b9d985b1a59605a1b6044820152606401610198565b60008281526003602081905260408220018054916105a2836122db565b9091555050600082815260036020908152604080832060090180546001810182559084528284200180546001600160a01b031916331790558483526006825280832084845290915281206005018054916105fb836122db565b9091555050600082815260066020818152604080842085855282528084209092018054600181810183559185528285200180546001600160a01b031916339081179091558685526004835283852081865290925291909220805460ff191690911790557fa36cc2bebb74db33e9f88110a07ef56e1b31b24b4c4f51b54b1664266e29f45b61068761194a565b60405190815260200160405180910390a25050565b60008181526002602052604090205460ff166106ca5760405162461bcd60e51b815260040161019890612298565b60008181526003602052604090206005015461010090046001600160a01b031633146107295760405162461bcd60e51b815260206004820152600e60248201526d139bdd08185d5d1a1bdc9a5e995960921b6044820152606401610198565b6000818152600360208190526040909120015460011161075b5760405162461bcd60e51b8152600401610198906122f4565b6000908152600360205260409020600501805460ff19166001179055565b60008581526002602052604090205460ff166107a75760405162461bcd60e51b815260040161019890612298565b60008581526003602052604090206005015461010090046001600160a01b031633146108065760405162461bcd60e51b815260206004820152600e60248201526d139bdd08185d5d1a1bdc9a5e995960921b6044820152606401610198565b60008451116108275760405162461bcd60e51b8152600401610198906120d9565b60008351116108785760405162461bcd60e51b815260206004820152601b60248201527f4465736372697074696f6e2063616e6e6f7420626520656d70747900000000006044820152606401610198565b60008581526003602052604090206005015460ff16156108d15760405162461bcd60e51b8152602060048201526014602482015273141bdb1b08185b1c9958591e4819195b195d195960621b6044820152606401610198565b600085815260036020819052604090912001546001116109035760405162461bcd60e51b8152600401610198906122f4565b8181116109225760405162461bcd60e51b815260040161019890612107565b600085815260036020526040902060010161093d85826121d8565b50600085815260036020526040902060020161095984826121d8565b506000948552600360205260409094206006810191909155600701929092555050565b6060600060015b60005481116109c55760008181526003602052604090206005015460ff166109b357816109af816122db565b9250505b806109bd816122db565b915050610983565b508067ffffffffffffffff8111156109df576109df611b41565b604051908082528060200260200182016040528015610a1857816020015b610a05611969565b8152602001906001900390816109fd5790505b509150600060015b6000548111610d5f5760008181526003602052604090206005015460ff16610d4d57600360008281526020019081526020016000206040518061018001604052908160008201548152602001600182018054610a7b9061214f565b80601f0160208091040260200160405190810160405280929190818152602001828054610aa79061214f565b8015610af45780601f10610ac957610100808354040283529160200191610af4565b820191906000526020600020905b815481529060010190602001808311610ad757829003601f168201915b50505050508152602001600282018054610b0d9061214f565b80601f0160208091040260200160405190810160405280929190818152602001828054610b399061214f565b8015610b865780601f10610b5b57610100808354040283529160200191610b86565b820191906000526020600020905b815481529060010190602001808311610b6957829003601f168201915b505050918352505060038201546020808301919091526004830154604080840191909152600584015460ff8116151560608501526001600160a01b0361010091829004166080850152600685015460a0850152600785015460c0850152600885015460e085015260098501805483518186028101860190945280845291909401939192830182828015610c4257602002820191906000526020600020905b81546001600160a01b03168152600190910190602001808311610c24575b50505050508152602001600a8201805480602002602001604051908101604052809291908181526020016000905b82821015610d1c578382906000526020600020018054610c8f9061214f565b80601f0160208091040260200160405190810160405280929190818152602001828054610cbb9061214f565b8015610d085780601f10610cdd57610100808354040283529160200191610d08565b820191906000526020600020905b815481529060010190602001808311610ceb57829003601f168201915b505050505081526020019060010190610c70565b50505091525085905083610d2f816122db565b945081518110610d4157610d41612324565b60200260200101819052505b80610d57816122db565b915050610a20565b50505090565b60008481526002602052604090205460ff16610d935760405162461bcd60e51b815260040161019890612298565b6000835111610db45760405162461bcd60e51b8152600401610198906120d9565b6000825111610e055760405162461bcd60e51b815260206004820152601760248201527f506963747572652063616e6e6f7420626520656d7074790000000000000000006044820152606401610198565b6000815111610e565760405162461bcd60e51b815260206004820152601b60248201527f416368696576656d656e742063616e6e6f7420626520656d70747900000000006044820152606401610198565b60008481526003602081905260409091200154600111610e885760405162461bcd60e51b8152600401610198906122f4565b600084815260056020908152604080832033845290915290205460ff1615610ee65760405162461bcd60e51b8152602060048201526011602482015270105b1c9958591e4818dbdb9d195cdd1959607a1b6044820152606401610198565b610ef4600180546001019055565b610efc611a8c565b6001805482526020808301858152604080850188905260608501869052336080860152600089815260068452818120865182529093529091208351815590518392820190610f4a90826121d8565b5060408201516002820190610f5f90826121d8565b5060608201516003820190610f7490826121d8565b5060808201516004820180546001600160a01b0319166001600160a01b0390921691909117905560a0820151600582015560c08201518051610fc09160068401916020909101906119d5565b50505060008581526005602090815260408083203384528252808320805460ff1916600190811790915588845260038352908320600a0180549182018155835291200161100d84826121d8565b50600085815260036020526040812060040180549161102b836122db565b91905055505050505050565b61103f611969565b6003600083815260200190815260200160002060405180610180016040529081600082015481526020016001820180546110789061214f565b80601f01602080910402602001604051908101604052809291908181526020018280546110a49061214f565b80156110f15780601f106110c6576101008083540402835291602001916110f1565b820191906000526020600020905b8154815290600101906020018083116110d457829003601f168201915b5050505050815260200160028201805461110a9061214f565b80601f01602080910402602001604051908101604052809291908181526020018280546111369061214f565b80156111835780601f1061115857610100808354040283529160200191611183565b820191906000526020600020905b81548152906001019060200180831161116657829003601f168201915b505050918352505060038201546020808301919091526004830154604080840191909152600584015460ff8116151560608501526001600160a01b0361010091829004166080850152600685015460a0850152600785015460c0850152600885015460e08501526009850180548351818602810186019094528084529190940193919283018282801561123f57602002820191906000526020600020905b81546001600160a01b03168152600190910190602001808311611221575b50505050508152602001600a8201805480602002602001604051908101604052809291908181526020016000905b8282101561131957838290600052602060002001805461128c9061214f565b80601f01602080910402602001604051908101604052809291908181526020018280546112b89061214f565b80156113055780601f106112da57610100808354040283529160200191611305565b820191906000526020600020905b8154815290600101906020018083116112e857829003601f168201915b50505050508152602001906001019061126d565b505050915250909392505050565b6060600060015b60015481116113785760008481526006602090815260408083208484529091529020548190036113665781611362816122db565b9250505b80611370816122db565b91505061132e565b508067ffffffffffffffff81111561139257611392611b41565b6040519080825280602002602001820160405280156113cb57816020015b6113b8611a8c565b8152602001906001900390816113b05790505b509150600060015b60015481116116b55760008581526006602090815260408083208484529091529020548190036116a3576000858152600660209081526040808320848452825291829020825160e081019093528054835260018101805491928401916114389061214f565b80601f01602080910402602001604051908101604052809291908181526020018280546114649061214f565b80156114b15780601f10611486576101008083540402835291602001916114b1565b820191906000526020600020905b81548152906001019060200180831161149457829003601f168201915b505050505081526020016002820180546114ca9061214f565b80601f01602080910402602001604051908101604052809291908181526020018280546114f69061214f565b80156115435780601f1061151857610100808354040283529160200191611543565b820191906000526020600020905b81548152906001019060200180831161152657829003601f168201915b5050505050815260200160038201805461155c9061214f565b80601f01602080910402602001604051908101604052809291908181526020018280546115889061214f565b80156115d55780601f106115aa576101008083540402835291602001916115d5565b820191906000526020600020905b8154815290600101906020018083116115b857829003601f168201915b505050505081526020016004820160009054906101000a90046001600160a01b03166001600160a01b03166001600160a01b03168152602001600582015481526020016006820180548060200260200160405190810160405280929190818152602001828054801561167057602002820191906000526020600020905b81546001600160a01b03168152600190910190602001808311611652575b505050505081525050848380611685906122db565b94508151811061169757611697612324565b60200260200101819052505b806116ad816122db565b9150506113d3565b505050919050565b6116c5611a8c565b6000838152600660209081526040808320858452825291829020825160e081019093528054835260018101805491928401916117009061214f565b80601f016020809104026020016040519081016040528092919081815260200182805461172c9061214f565b80156117795780601f1061174e57610100808354040283529160200191611779565b820191906000526020600020905b81548152906001019060200180831161175c57829003601f168201915b505050505081526020016002820180546117929061214f565b80601f01602080910402602001604051908101604052809291908181526020018280546117be9061214f565b801561180b5780601f106117e05761010080835404028352916020019161180b565b820191906000526020600020905b8154815290600101906020018083116117ee57829003601f168201915b505050505081526020016003820180546118249061214f565b80601f01602080910402602001604051908101604052809291908181526020018280546118509061214f565b801561189d5780601f106118725761010080835404028352916020019161189d565b820191906000526020600020905b81548152906001019060200180831161188057829003601f168201915b505050505081526020016004820160009054906101000a90046001600160a01b03166001600160a01b03166001600160a01b03168152602001600582015481526020016006820180548060200260200160405190810160405280929190818152602001828054801561193857602002820191906000526020600020905b81546001600160a01b0316815260019091019060200180831161191a575b50505050508152505090505b92915050565b6000611958426103e861233a565b611964906103e8612351565b905090565b604051806101800160405280600081526020016060815260200160608152602001600081526020016000815260200160001515815260200160006001600160a01b0316815260200160008152602001600081526020016000815260200160608152602001606081525090565b828054828255906000526020600020908101928215611a2a579160200282015b82811115611a2a57825182546001600160a01b0319166001600160a01b039091161782556020909201916001909101906119f5565b50611a36929150611ad2565b5090565b828054828255906000526020600020908101928215611a80579160200282015b82811115611a805782518290611a7090826121d8565b5091602001919060010190611a5a565b50611a36929150611ae7565b6040518060e001604052806000815260200160608152602001606081526020016060815260200160006001600160a01b0316815260200160008152602001606081525090565b5b80821115611a365760008155600101611ad3565b80821115611a36576000611afb8282611b04565b50600101611ae7565b508054611b109061214f565b6000825580601f10611b20575050565b601f016020900490600052602060002090810190611b3e9190611ad2565b50565b634e487b7160e01b600052604160045260246000fd5b600082601f830112611b6857600080fd5b813567ffffffffffffffff80821115611b8357611b83611b41565b604051601f8301601f19908116603f01168101908282118183101715611bab57611bab611b41565b81604052838152866020858801011115611bc457600080fd5b836020870160208301376000602085830101528094505050505092915050565b60008060008060808587031215611bfa57600080fd5b843567ffffffffffffffff80821115611c1257600080fd5b611c1e88838901611b57565b95506020870135915080821115611c3457600080fd5b50611c4187828801611b57565b949794965050505060408301359260600135919050565b60008060408385031215611c6b57600080fd5b50508035926020909101359150565b600060208284031215611c8c57600080fd5b5035919050565b600080600080600060a08688031215611cab57600080fd5b85359450602086013567ffffffffffffffff80821115611cca57600080fd5b611cd689838a01611b57565b95506040880135915080821115611cec57600080fd5b50611cf988828901611b57565b9598949750949560608101359550608001359392505050565b6000815180845260005b81811015611d3857602081850181015186830182015201611d1c565b506000602082860101526020601f19601f83011685010191505092915050565b600081518084526020808501945080840160005b83811015611d915781516001600160a01b031687529582019590820190600101611d6c565b509495945050505050565b600082825180855260208086019550808260051b84010181860160005b84811015611de757601f19868403018952611dd5838351611d12565b98840198925090830190600101611db9565b5090979650505050505050565b6000610180825184526020830151816020860152611e1482860182611d12565b91505060408301518482036040860152611e2e8282611d12565b915050606083015160608501526080830151608085015260a0830151611e5860a086018215159052565b5060c0830151611e7360c08601826001600160a01b03169052565b5060e08381015190850152610100808401519085015261012080840151908501526101408084015185830382870152611eac8382611d58565b925050506101608084015185830382870152611ec88382611d9c565b9695505050505050565b6000602080830181845280855180835260408601915060408160051b870101925083870160005b82811015611f2757603f19888603018452611f15858351611df4565b94509285019290850190600101611ef9565b5092979650505050505050565b60008060008060808587031215611f4a57600080fd5b84359350602085013567ffffffffffffffff80821115611f6957600080fd5b611f7588838901611b57565b94506040870135915080821115611f8b57600080fd5b611f9788838901611b57565b93506060870135915080821115611fad57600080fd5b50611fba87828801611b57565b91505092959194509250565b602081526000611fd96020830184611df4565b9392505050565b805182526000602082015160e06020850152611fff60e0850182611d12565b9050604083015184820360408601526120188282611d12565b915050606083015184820360608601526120328282611d12565b91505060018060a01b03608084015116608085015260a083015160a085015260c083015184820360c08601526120688282611d58565b95945050505050565b6000602080830181845280855180835260408601915060408160051b870101925083870160005b82811015611f2757603f198886030184526120b4858351611fe0565b94509285019290850190600101612098565b602081526000611fd96020830184611fe0565b6020808252601490820152734e616d652063616e6e6f7420626520656d70747960601b604082015260600190565b60208082526028908201527f456e642074696d65206d7573742062652067726561746572207468616e2073746040820152676172742074696d6560c01b606082015260800190565b600181811c9082168061216357607f821691505b60208210810361218357634e487b7160e01b600052602260045260246000fd5b50919050565b601f8211156121d357600081815260208120601f850160051c810160208610156121b05750805b601f850160051c820191505b818110156121cf578281556001016121bc565b5050505b505050565b815167ffffffffffffffff8111156121f2576121f2611b41565b61220681612200845461214f565b84612189565b602080601f83116001811461223b57600084156122235750858301515b600019600386901b1c1916600185901b1785556121cf565b600085815260208120601f198616915b8281101561226a5788860151825594840194600190910190840161224b565b50858210156122885787850151600019600388901b60f8161c191681555b5050505050600190811b01905550565b602080825260139082015272141bdb1b08191bd95cc81b9bdd08195e1a5cdd606a1b604082015260600190565b634e487b7160e01b600052601160045260246000fd5b6000600182016122ed576122ed6122c5565b5060010190565b602080825260169082015275506f6c6c20616c72656164792068617320766f74657360501b604082015260600190565b634e487b7160e01b600052603260045260246000fd5b8082028115828204841417611944576119446122c5565b80820180821115611944576119446122c556fea264697066735822122053f3083c99509197d5bd4dbc9b3e9a3530f50acbf23f2eeaf71305f914b8e71164736f6c63430008110033",
  "linkReferences": {},
  "deployedLinkReferences": {}
}